:020000040000FA
:100000000C9435000C945D000C945D000C945D0024
:100010000C945D000C945D000C945D000C945D00EC
:100020000C945D000C945D000C945D000C945D00DC
:100030000C945D000C945D000C945D000C945D00CC
:100040000C94C6030C945D000C9436040C941004BC
:100050000C945D000C945D000C945D000C945D00AC
:100060000C945D000C945D00E60711241FBECFEFD9
:10007000D8E0DEBFCDBF12E0A0E0B1E0EEE5FCE1EC
:1000800002C005900D92A436B107D9F726E0A4E688
:10009000B2E001C01D92A239B207E1F710E0C5E35A
:1000A000D0E004C02197FE010E945509C433D10756
:1000B000C9F70E9474040C942D0E0C940000FC01EE
:1000C000218D328D838D948DA901481B590BCA0156
:1000D00091700895AF92BF92CF92DF92EF92FF920C
:1000E0000F931F93CF93DF936C017B018B01040F60
:1000F000151FEB015E01AE18BF08C017D10759F0FC
:100100006991D601ED91FC910190F081E02DC6013D
:100110000995892B79F7C501DF91CF911F910F9137
:10012000FF90EF90DF90CF90BF90AF900895209117
:100130008602309187028091880290918902281B63
:10014000390B317081E0232B09F480E0089580E0C1
:1001500090E0892B29F00E94970081110C940000F7
:1001600008954FB7F894FC01258D368D878D90A1A9
:100170004FBF2817390728F081509E4F821B930BE1
:1001800008950197FBCFFC01218D328D838D948DD5
:100190002817390779F0A38DB48DAE0FBF1F919644
:1001A0008C91238D348D2F5F3F4F3170348F238F8F
:1001B00090E008958FEF9FEF08952FB7F894809106
:1001C000690290916A02A0916B02B0916C022FBFFC
:1001D0008093750290937602A0937702B093780291
:1001E0008DE692E00E94C30097FF26C02FB7F894D7
:1001F0008091690290916A02A0916B02B0916C02A9
:100200002FBF4091750250917602609177027091F4
:100210007802841B950BA60BB70B4091710250918D
:100220007202609173027091740284179507A60799
:10023000B707B0F28FEF9FEF0895FC01218D328D4B
:10024000838D948D2817390739F0838D948DE80FAD
:10025000F91F81A190E008958FEF9FEF0895FC01B1
:10026000A78DB0A1A80FB91FAF5DBD4F2C91878D91
:1002700090A10196917090A3878FA689B7892C933E
:10028000A089B1898C91837080648C93258D368D83
:10029000878D90A12817390731F40288F389E02D62
:1002A00080818F7D80830895FF920F931F93CF935A
:1002B000DF93EC0181E0888F2D8D3E8D8F8D98A18D
:1002C00028173907C9F4E889F989808185FF14C0A6
:1002D0009FB7F894EE89FF896083E889F989808166
:1002E0008370806480839FBF81E090E0DF91CF9135
:1002F0001F910F91FF900895F62E0D8D1E8D0F5FAB
:100300001F4F11708F8D98A18017910761F40FB660
:1003100007FCF8CFE889F989808185FFF3CFCE010A
:100320000E942F01EFCFED8DFE8DEC0FFD1FEF5DD5
:10033000FD4FF0829FB7F8941E8F0D8FEA89FB89DD
:1003400080818062CFCFCF93DF93EC01888D8823AB
:10035000B9F0AA89BB89E889F9898C9185FD03C028
:10036000808186FD0DC00FB607FCF7CF8C9185FF0D
:10037000F2CF808185FFEDCFCE010E942F01E9CF22
:10038000DF91CF910895CF93DF93FB01EB019B01A8
:10039000275F3F4FDB019C9198130AC011969C91F7
:1003A0001197981305C012969C911297981741F1D6
:1003B0001396A217B30779F79F012D5F3F4F9991CD
:1003C000891306C09A81891303C09D818917C1F0E2
:1003D0002C173D07A1F79081891306C094818913DA
:1003E00003C09085891761F09281891307C09481B9
:1003F000891304C091E02681281719F090E001C00C
:1004000091E0892FDF91CF9108952F923F924F92E3
:100410005F926F927F928F929F92AF92BF92CF9294
:10042000DF92EF92FF920F931F93CF93DF93CDB79D
:10043000DEB763970FB6F894DEBF0FBECDBF382E80
:100440008B012B016B0129E0C20ED11C7B01A82E70
:10045000880FBB08470183E0880E911CD7017C9070
:10046000BFE57B120AC0F7013082B501802F0E94E0
:10047000C30181112AC0D7017C92BFEFEB1AFB0A9E
:100480008E149F0459F7EC14FD0421F7E8E53E12A1
:1004900035C0F8E5FB8B8B89882E880F99083801C9
:1004A0005301D12CC12CD5012C90BFE52B122BC0B0
:1004B0002B89F5012083B401802F0E94C30188237A
:1004C00001F1C60CD71CD6013C9263960FB6F89486
:1004D000DEBF0FBECDBFDF91CF911F910F91FF9077
:1004E000EF90DF90CF90BF90AF909F908F907F90D4
:1004F0006F905F904F903F902F9008952FE42B8B3B
:10050000CACFF5012082FFEFCF1ADF0A2FEFA21A20
:10051000B20A83E0C816D10431F6A3E06A0E711C5A
:100520006E147F0409F0BCCF82E1EAE0F1E0DE0165
:10053000119601900D928A95E1F7CE01019670E037
:1005400060E0CC24CA94DC2CEFEFFFEF4FEF5FEFBD
:10055000720130E020E0D701BD907D01BFE5BB1204
:100560000EC0D901AA0FBB1FA80FB91F0D90BC91D7
:10057000A02DCA16DB061CF46D01F901AB012F5F3B
:100580003F4F2330310539F76F5F7F4F23E0420E35
:10059000511C069663307105D9F64F3F540709F494
:1005A00094CFEF3FFE0709F490CFCA01880F991F3F
:1005B000480F591F040F151FE00FF11F308285CF20
:1005C000FC0101900020E9F73197AF01481B590B5E
:1005D000BC018DE692E00C946A000C94E0020F934B
:1005E0001F93CF93DF938C01EB01BC0188E50E9440
:1005F000C3016EE271E081111AC0B8018FE40E945C
:10060000C30164E371E0811112C0F801C8010996C9
:1006100020812F3599F021812F3581F022812F35CE
:1006200069F03396E817F90799F76AE371E0CE01AC
:10063000DF91CF911F910F910C944F0B6FE371E0FD
:10064000F6CF0F931F93CF93DF93EC0188819981AD
:10065000009759F02A813B812617370730F081E057
:10066000DF91CF911F910F9108958B016F5F7F4FA5
:100670000E94800A009759F0998388831B830A831C
:100680002C813D81232B59F7FC011082E8CF80E0BB
:10069000E7CF7F928F929F92AF92BF92CF92DF92DD
:1006A000EF92FF920F931F93CF93DF93CDB7DEB7F7
:1006B000A8970FB6F894DEBF0FBECDBF7C01062F02
:1006C000772E6A0159017F936F9388E491E09F939D
:1006D0008F931F9214E11F939E012F5F3F4F49019B
:1006E0003F932F930E947F0B7F920F938DE491E0B5
:1006F0009F938F931F921F938E010B5E1F4F1F932B
:100700000F930E947F0BB401C7010E94650B0FB6C7
:10071000F894DEBF0FBECDBF0097B1F4F601108292
:10072000A8960FB6F894DEBF0FBECDBFDF91CF9174
:100730001F910F91FF90EF90DF90CF90BF90AF90FF
:100740009F908F907F900895F40101900020E9F729
:100750003197E819F9097C01EE0EFF1EB801C701B7
:100760000E94650B0097D1F28C010E191F090A1522
:100770001B051CF0850101501109A801B701C60134
:100780000E94560B0C0D1D1DF801C9CF1F920F9230
:100790000FB60F9211242F933F938F939F93AF9394
:1007A000BF938091690290916A02A0916B02B0910F
:1007B0006C023091680223E0230F2D3758F5019623
:1007C000A11DB11D209368028093690290936A0273
:1007D000A0936B02B0936C028091640290916502C9
:1007E000A0916602B09167020196A11DB11D809390
:1007F000640290936502A0936602B0936702BF9172
:10080000AF919F918F913F912F910F900FBE0F90BD
:100810001F90189526E8230F0296A11DB11DD2CF77
:100820001F920F920FB60F9211242F933F934F9365
:100830005F936F937F938F939F93AF93BF93EF9348
:10084000FF938DE692E00E942F01FF91EF91BF91FF
:10085000AF919F918F917F916F915F914F913F9158
:100860002F910F900FBE0F901F9018951F920F920F
:100870000FB60F9211242F934F935F938F939F93F3
:10088000EF93FF93E0917D02F0917E028081E091F1
:100890008302F091840282FD25C02081809186022E
:1008A000909187020196917040918802509189023F
:1008B0008417950759F0E0918602F0918702E35979
:1008C000FD4F21A39093870280938602FF91EF91C1
:1008D0009F918F915F914F912F910F900FBE0F902D
:1008E0001F9018958081F2CFCF93DF93CDB7DEB7FD
:1008F000E0970FB6F894DEBF0FBECDBF789484B5F5
:10090000826084BD84B5816084BD85B5826085BD0B
:1009100085B5816085BD80916E00816080936E0099
:10092000109281008091810082608093810080918B
:10093000810081608093810080918000816080933C
:1009400080008091B10084608093B1008091B000FC
:1009500081608093B00080917A00846080937A00F7
:1009600080917A00826080937A0080917A00816021
:1009700080937A0080917A00806880937A00109248
:10098000C100E0917D02F0917E0282E08083E091DF
:100990007902F0917A021082E0917B02F0917C0260
:1009A0008FEC808310928502E0918102F0918202A7
:1009B00086E08083E0917F02F091800280818061F7
:1009C0008083E0917F02F091800280818860808343
:1009D000E0917F02F0918002808180688083E091C5
:1009E0007F02F091800280818F7D808380E48093FC
:1009F0007C0080917A00806480937A0080917A00F4
:100A000086FDFCCF6091780070917900072E000C74
:100A1000880B990B611571058105910511F00E94F4
:100A2000B2083E0188E2680E711C93E0892E912C79
:100A3000A12CB12C8091860290918702209188028E
:100A400030918902821B930B9170892B09F47BC230
:100A500019A618A61BA61AA61DA61CA670E060E083
:100A6000C3010E94210328A539A581112DC021159C
:100A7000310519F0C9010E94F70919A618A61DA68B
:100A80001CA61BA61AA60E94DD0097FD25C08A3071
:100A9000910511F189831A820CA51DA50F5F1F4FC7
:100AA000B801C3010E942103882369F328A539A551
:100AB0008CA59DA5BE016F5F7F4F820F931F0E9483
:100AC0004F0B1DA70CA7DFCF1DA61CA664E472E088
:100AD000C9010E944F0BD7CF1A8219821C821B8238
:100AE0001E821D826CE070E0CE0101960E942103FF
:100AF00029813A81811134C22115310519F0C901CA
:100B00000E94F7091A8219821E821D821C821B8292
:100B1000E980FA808CA59DA5892B09F44DC2C8A453
:100B2000D9A4B701C6010E94650B009709F444C21D
:100B30008C010C191D09E114F10409F01BC20F3FCF
:100B40001F4F09F43EC208A519A522E030E0AE010E
:100B5000425D5F4F60E671E0C8010E94490324E1F5
:100B600030E0AE014F5F5F4F67E671E0C8010E9461
:100B700049032AE030E0AE014B5E5F4F60E771E071
:100B8000C8010E94490367E771E0C8010E94650B34
:100B90000097F9F08E01015E1F4F6FE771E00E9430
:100BA000650B7C010097A9F02801E3E04E0E511C73
:100BB00065E871E00E94650B6C01009709F0DEC1E9
:100BC0006CE871E0C7010E94650B82016414750432
:100BD00021F76BE971E0CE0101960E94460B892B4B
:100BE000E9F466EA71E0CE0145960E94460B892B36
:100BF00041F06FE371E0CE0145960E94460B892BD0
:100C000069F48EA5883509F0CBC18FE48EA7BE01AB
:100C10006B5E7F4FCE014F960E94EF026CEA71E04F
:100C2000CE0101960E94460B892B09F048C066EA66
:100C300071E0CE0145960E94460B892B71F06FE35F
:100C400071E0CE0145960E94460B892BC1F58EA519
:100C5000883509F0A7C18FE48EA7BE016B5E7F4F78
:100C6000CE014F960E94EF026EE271E0CE014596F2
:100C70000E94460B892B19F164E371E0CE01459681
:100C80000E94460B892BD9F06AE371E0CE014596AC
:100C90000E94460B892B99F0BE01615E7F4F8EA5A5
:100CA0000E9405028EA5883509F07EC18FE48EA7CB
:100CB000BE016B5E7F4FCE014F960E94EF0266EB46
:100CC00071E0CE0101960E94460B892B09F047C0C6
:100CD00066EA71E0CE0145960E94460B892B41F0F1
:100CE0006FE371E0CE0145960E94460B892BB9F562
:100CF000BE016B5E7F4FCE014F960E94EF026EE207
:100D000071E0CE0145960E94460B892B41F164E3C8
:100D100071E0CE0145960E94460B892B01F16AE3F2
:100D200071E0CE0145960E94460B892BC1F08EA53D
:100D3000883509F03BC18FE48EA7BE01615E7F4F0D
:100D40000E9405028EA5883509F032C18FE48EA776
:100D5000BE016B5E7F4FCE014F960E94EF0260ECAA
:100D600071E0CE0101960E94460B892B09F085C0E7
:100D700066EA71E0CE0145960E94460B892B49F048
:100D80006FE371E0CE0145960E94460B892B09F076
:100D900074C0BE016B5E7F4FCE014F960E94EF0282
:100DA0006EE271E0CE0145960E94460B892B09F454
:100DB00064C064E371E0CE0145960E94460B892B26
:100DC00009F45BC06AE371E0CE0145960E94460BD0
:100DD000892B09F452C009E010E06EE271E0CE0107
:100DE00045960E94460B892B09F443C064E371E0E9
:100DF000CE0145960E94460B892BD9F16AE371E03A
:100E0000CE0145960E94460B892B99F1FEA5F8ABC1
:100E10000E9463086B017C010E946308A501940194
:100E20000E94BB081B01C701B601A50194010E94E5
:100E3000BB089B01220F331F620F731F8FE190E0ED
:100E40008C0F9D1F680F791FFB01E20DF31D808140
:100E50008F35F1F698A990838EA5883509F0AAC040
:100E60008FE48EA7BE016B5E7F4FCE014F960E942E
:100E7000EF020150110909F0B0CF89EC91E00E9416
:100E8000ED0280EF91E00E94ED028CEF91E00E9474
:100E9000ED02CE018E960E94ED0285E092E00E9466
:100EA000ED028FE092E00E94ED02CE0101960E94D9
:100EB000ED028AE192E00E94ED0287E791E00E9454
:100EC000ED028E01015E1F4F8FE791E00E94ED025F
:100ED0007801E3E0EE0EF11C85E891E00E94ED025E
:100EE000F80161918F018DE692E00E94540183E93F
:100EF00091E00E94ED02E016F10671F78CE891E0B6
:100F00000E94ED02E614F704F9F686E292E00E94F0
:100F1000ED028FE292E00E94ED02CE0145960E9422
:100F2000ED0288E392E00E94ED0283E591E00E94E9
:100F3000ED0282E492E00E94E00288A599A5009764
:100F400011F00E94F70980E090E0892B09F472CD3E
:100F50000E949700882309F46DCD0E9400006ACD9D
:100F60008CE090E09E838D8363E571E0C9010E946F
:100F70004F0BCECDC7010E94F709E1CD63E971E0C7
:100F800006960E94650B009709F423CEF601268190
:100F9000F80121938F014E165F0609F009CE10CE9D
:100FA00088E534CE88E558CE88E581CE88E5C4CE84
:100FB00088E5CDCE88E555CF0FEF1FEFE114F104A2
:100FC000C9F685E492E00E94E002B3CFEDE6F2E0DC
:100FD0001382128288EE93E0A0E0B0E084839583D0
:100FE000A683B78380E291E09183808385EC90E0D3
:100FF0009587848784EC90E09787868780EC90E0E3
:10100000918B808B81EC90E0938B828B82EC90E0D3
:10101000958B848B86EC90E0978B868B128E118E4D
:10102000148E138E168E158E10A2178E08958F9221
:101030009F92AF92BF92CF92DF92EF92FF92CF93A7
:10104000DF93EC01688179818A819B81611571054B
:101050008105910521F464E279ED8BE597E02DE1BE
:1010600033EF41E050E00E94BB0849015A019B0167
:10107000AC01A7EAB1E40E94DA086B017C01ACEE96
:10108000B4EFA50194010E94E808C60ED71EE81E21
:10109000F91EF7FE06C081E0C81AD108E10880E811
:1010A000F80AC882D982EA82FB82C701B6019F771B
:1010B000DF91CF91FF90EF90DF90CF90BF90AF90F6
:1010C0009F908F9008958F929F92AF92BF92CF92F0
:1010D000DF92EF92FF926091000170910101809187
:1010E000020190910301611571058105910521F4BB
:1010F00064E279ED8BE597E02DE133EF41E050E0DC
:101100000E94BB0849015A019B01AC01A7EAB1E466
:101110000E94DA086B017C01ACEEB4EFA5019401EA
:101120000E94E808C60ED71EE81EF91EF7FE06C08C
:1011300081E0C81AD108E10880E8F80AC0920001ED
:10114000D0920101E0920201F0920301C701B601C1
:101150009F77FF90EF90DF90CF90BF90AF909F90E0
:101160008F900895609300017093010180930201B4
:10117000909303010895052E97FB1EF400940E949E
:10118000D20857FD07D00E94240907FC03D04EF473
:101190000C94D20850954095309521953F4F4F4F74
:1011A0005F4F089590958095709561957F4F8F4F13
:1011B0009F4F08950E944609A59F900DB49F900DE2
:1011C000A49F800D911D11240895B7FF0C94DA0897
:1011D0000E94DA08821B930B08952F923F924F9240
:1011E0005F926F927F928F929F92AF92BF92CF92B7
:1011F000DF92EF92FF920F931F93CF93DF93CDB7C0
:10120000DEB7CA1BDB0B0FB6F894DEBF0FBECDBF37
:1012100009942A88398848885F846E847D848C8408
:101220009B84AA84B984C884DF80EE80FD800C8111
:101230001B81AA81B981CE0FD11D0FB6F894DEBFF4
:101240000FBECDBFED010895A1E21A2EAA1BBB1B54
:10125000FD010DC0AA1FBB1FEE1FFF1FA217B30782
:10126000E407F50720F0A21BB30BE40BF50B661F98
:10127000771F881F991F1A9469F76095709580955C
:1012800090959B01AC01BD01CF010895A29FB001D3
:10129000B39FC001A39F700D811D1124911DB29FAA
:1012A000700D811D1124911D0895EE0FFF1F0590F3
:1012B000F491E02D09940F931F93CF93DF93823025
:1012C000910510F482E090E0E0919006F091910693
:1012D00030E020E0B0E0A0E0309799F4211531052E
:1012E00009F44AC0281B390B24303105D8F58A810E
:1012F0009B816115710589F1FB0193838283FE0156
:1013000011C0408151810281138148175907E0F0D3
:101310004817590799F4109761F012960C93129799
:1013200013961C933296CF01DF91CF911F910F91AD
:1013300008950093900610939106F4CF211531057E
:1013400051F04217530738F0A901DB019A01BD01A2
:10135000DF01F801C1CFEF01F9CF9093910680939F
:101360009006CDCFFE01E20FF31F8193919322509F
:10137000310939832883D7CF20918E0630918F068B
:10138000232B41F4209106013091070130938F0601
:1013900020938E062091040130910501211531051D
:1013A00041F42DB73EB74091080150910901241B2B
:1013B000350BE0918E06F0918F06E217F307A0F44B
:1013C0002E1B3F0B2817390778F0AC014E5F5F4F9B
:1013D0002417350748F04E0F5F1F50938F06409338
:1013E0008E06819391939FCFF0E0E0E09CCFCF9366
:1013F000DF930097E9F0FC01329713821282A091EB
:101400009006B0919106ED0130E020E01097A1F434
:1014100020813181820F931F20918E0630918F069B
:101420002817390709F061C0F0938F06E0938E0604
:10143000DF91CF910895EA01CE17DF07E8F54A81E1
:101440005B819E0141155105B1F7E901FB83EA83F8
:1014500049915991C40FD51FEC17FD0761F48081A4
:1014600091810296840F951FE90199838883828177
:1014700093819B838A83F0E0E0E012968D919C91AA
:1014800013970097B9F52D913C911197CD010296D4
:10149000820F931F20918E0630918F0628173907EF
:1014A00039F6309751F51092910610929006B0934C
:1014B0008F06A0938E06BCCFD383C2834081518117
:1014C000840F951FC817D90761F44E5F5F4F88815D
:1014D0009981480F591F518340838A819B8193834F
:1014E00082832115310509F0B0CFF0939106E09386
:1014F00090069ECFFD01DC01C0CF13821282D7CFB0
:10150000B0E0A0E0E6E8FAE00C94EF088C01009768
:1015100051F4CB010E945B098C01C801CDB7DEB745
:10152000E0E10C940B09FC01E60FF71F9C0122502F
:101530003109E217F30708F49DC0D901CD91DC9180
:101540001197C617D70798F0C530D10530F3CE01F3
:1015500004978617970708F3C61BD70B2297C193EA
:10156000D1936D937C93CF010E94F709D6CF5B0195
:10157000AC1ABD0A4C018C0E9D1EA0919006B09134
:101580009106512C412CF12CE12C109731F58091D2
:101590008E0690918F068815990509F05CC0461655
:1015A000570608F058C080910401909105010097FA
:1015B00041F48DB79EB74091080150910901841BF9
:1015C000950BE817F90708F055C0F0938F06E093E4
:1015D0008E06F90171836083A0CF8D919C91119744
:1015E00012966C90129713967C901397A815B905D4
:1015F00059F56C0142E0C40ED11CCA14DB0420F181
:10160000AC014A195B09DA011296159780F06282E3
:10161000738251834083D9016D937C93E114F1046B
:1016200071F0D7011396FC93EE93129776CF229622
:101630008C0F9D1FF90191838083F301EFCFF0930D
:101640009106E093900669CF4816590608F42C01DC
:101650007D01D3019ACFCB010E945B097C010097E9
:1016600049F0AE01B8010E943D0BC8010E94F70984
:10167000870153CF10E000E050CFFB01DC0102C036
:1016800001900D9241505040D8F70895FB01DC01C4
:101690008D91019080190110D9F3990B0895FB01E8
:1016A000DC0101900D920020E1F70895FB01DC01BF
:1016B0004150504048F001900D920020C9F701C000
:1016C0001D9241505040E0F70895FB015191552380
:1016D000A9F0BF01DC014D9145174111E1F759F423
:1016E000CD010190002049F04D9140154111C9F301
:1016F000FB014111EFCF81E090E001970895AEE04A
:10170000B0E0E5E8FBE00C94FB080D891E898F89A9
:10171000988D26E02C831A83098397FF02C080E00E
:1017200090E801979E838D83AE01455E5F4F698D82
:101730007A8DCE0101960E94AF0B4D815E8157FDDF
:101740000AC02F813885421753070CF49A01020F03
:10175000131FF80110822E96E4E00C941709ABE0F9
:10176000B0E0E5EBFBE00C94ED087C013B018A0165
:10177000FC0117821682838181FFC8C1CE010196C8
:101780005C01F7019381F30193FD859193FF8191B2
:101790003F01882309F453C1853239F493FD8591C3
:1017A00093FF81913F01853229F4B70190E00E94B7
:1017B0009F0DE7CF912C212C312CFFE1F31538F050
:1017C0008B3211F190F4803209F1833229F137FC28
:1017D0003CC020ED280F2A3050F536FE20C08AE0AC
:1017E000989E200D1124922E06C08D3291F08033E8
:1017F00071F7689430F8F30193FD859193FF81911F
:101800003F018111DACF21C0689431F8689432F831
:10181000F2CF689433F8EFCF689434F8ECCFEAE075
:101820002E9E200D1124222E689435F8E4CF8E329E
:1018300029F436FC04C1689436F8DDCF8C3619F4EF
:10184000689437F8D8CF8836B1F2982F9F7D955499
:101850009330E0F08336A1F18337C1F1833509F08D
:1018600063C02801F2E04F0E511CF801C080D18006
:10187000692D70E036FC02C06FEF7FEFC6010E9459
:10188000890D4C01689437F882010AC00C5F1F4F24
:10189000FFE3F98388248394912C6501E89437F859
:1018A00033FE2DC0522C8114910471F5552009F49A
:1018B00068CFB70180E290E00E949F0D5A94F6CF66
:1018C000F801808189830E5F1F4FE4CF2801F2E089
:1018D0004F0E511CF801C080D180692D70E036FC9C
:1018E00002C06FEF7FEFC6010E94940D4C01820190
:1018F000D5CFB70180E290E00E949F0D2A94281472
:10190000190409F0B0F7CECFF60137FC859137FE08
:1019100081916F01B70190E00E949F0D51105A9480
:10192000F1E08F1A9108BFCF843619F0893609F09B
:1019300077C0F80137FE6BC060817181828193812D
:101940000C5F1F4FF32DFF763F2E97FF09C0909538
:101950008095709561957F4F8F4F9F4F689437F8B2
:101960002AE030E0A5010E94CF0DC82ECA188C2CA9
:10197000432C36FE0CC0E89440F8C91440F434FE01
:1019800005C032FC03C0F32DFE7E4F2E892C44FE91
:1019900095C0FE01EC0DF11D8081803309F087C0F8
:1019A000242D297E422E842D8870582E43FC95C00C
:1019B00040FE8FC09C2C821418F42C0C922C98188A
:1019C00044FE91C0B70180E390E00E949F0D42FE6B
:1019D00009C088E790E041FE02C088E590E0B701C9
:1019E0000E949F0DC91408F48AC0CA94D12C9FEF9D
:1019F000C91AD90ACA0CDB1CF60182916F01B70122
:101A000090E00E949F0DAC14BD04B1F74FCF6081F0
:101A10007181072E000C880B990B0E5F1F4F92CF20
:101A2000D32CE894D4F82AE030E0853739F1232D1F
:101A3000297FD22E8F3601F148F48835A9F0F701BD
:101A4000868197812B96E2E10C940909803749F051
:101A50008837A9F7D4FE02C06894D2F820E130E0BC
:101A60000DC06894D4F8F6CF34FE03C0822F866090
:101A7000D82E20E132E002C028E030E0F801D7FEA5
:101A80000FC060817181828193810C5F1F4FA5011E
:101A90000E94CF0DC82ECA183D2CE89437F867CFA6
:101AA0006081718190E080E00E5F1F4FF0CF42FCBB
:101AB00002C0839478CF8394839475CF842D8678E5
:101AC00009F471CFF6CFB70180E290E00E949F0D3C
:101AD00083948214C0F3512C73CF522C5818821463
:101AE00008F46ECFF8CF842D867809F47BCF8BE293
:101AF00041FE80E247FC8DE2B70190E071CFB70173
:101B000080E390E00E949F0D9A946CCF8FEF9FEF3F
:101B100099CFFC010590615070400110D8F7809575
:101B200090958E0F9F1F0895FC01615070400190A9
:101B30000110D8F7809590958E0F9F1F08950F93F1
:101B40001F93CF93DF93182F092FEB018B8181FD1A
:101B500009C01FEF0FEF812F902FDF91CF911F91C1
:101B60000F91089582FF14C02E813F818C819D8149
:101B7000281739073CF4E881F981CF010196998350
:101B8000888310838E819F8101969F838E83E3CF0C
:101B9000E885F985812F0995892BA1F3DACFFA0120
:101BA000AA27283051F1203181F1E8946F936E7F9C
:101BB0006E5F7F4F8F4F9F4FAF4FB1E03ED0B4E08D
:101BC0003CD0670F781F891F9A1FA11D680F791FCE
:101BD0008A1F911DA11D6A0F711D811D911DA11DDF
:101BE00020D009F468943F912AE0269F11243019EF
:101BF000305D3193DEF6CF010895462F4770405D8A
:101C00004193B3E00FD0C9F7F6CF462F4F70405D38
:101C10004A3318F0495D31FD4052419302D0A9F793
:101C2000EACFB4E0A6959795879577956795BA958D
:101C3000C9F700976105710508959B01AC010A2E53
:101C400006945795479537952795BA95C9F7620F2A
:101C5000731F841F951FA01D0895F894FFCF0100E6
:101C60000000000092068000030001000300010054
:101C70000500010003000100030000000000540102
:101C80006A00B100A3015F00C3001D0157696E2007
:101C9000580057696E204F0044726177004E657896
:101CA000744D6F7665003C25733E003C2F25733ED6
:101CB000003C2F47616D6553746174653E00506C44
:101CC000617965720047616D655479706500537480
:101CD00061747573003C426F6172643E003C526FE8
:101CE000773E003C43656C6C3E003C2F526F773E64
:101CF000003C2F43656C6C3E004D616E2076732076
:101D00004D616E00537461727400414920767320F6
:101D10004D616E004D616E2076732041490041494E
:101D2000207673204149003C3F786D6C20766572C7
:101D300073696F6E3D22312E302220656E636F64B1
:101D4000696E673D227574662D38223F3E003C4720
:101D5000616D6553746174653E003C506C617965DA
:101D6000723E003C2F506C617965723E003C4761C9
:101D70006D65547970653E003C2F47616D655479FF
:101D800070653E003C2F426F6172643E003C5374AC
:101D9000617475733E003C2F5374617475733E001B
:101DA0000D0A004572726F723A203C2F47616D65D3
:101DB00053746174653E206E6F7420666F756E6437
:021DC0002E00F3
:107E0000112484B714BE81FFF0D085E080938100F7
:107E100082E08093C00088E18093C10086E0809377
:107E2000C20080E18093C4008EE0C9D0259A86E02C
:107E300020E33CEF91E0309385002093840096BBD3
:107E4000B09BFECF1D9AA8958150A9F7CC24DD24C4
:107E500088248394B5E0AB2EA1E19A2EF3E0BF2EE7
:107E6000A2D0813461F49FD0082FAFD0023811F036
:107E7000013811F484E001C083E08DD089C08234E0
:107E800011F484E103C0853419F485E0A6D080C0E4
:107E9000853579F488D0E82EFF2485D0082F10E0AE
:107EA000102F00270E291F29000F111F8ED06801E7
:107EB0006FC0863521F484E090D080E0DECF843638
:107EC00009F040C070D06FD0082F6DD080E0C81688
:107ED00080E7D80618F4F601B7BEE895C0E0D1E017
:107EE00062D089930C17E1F7F0E0CF16F0E7DF06D8
:107EF00018F0F601B7BEE89568D007B600FCFDCFD4
:107F0000A601A0E0B1E02C9130E011968C91119780
:107F100090E0982F8827822B932B1296FA010C0160
:107F200087BEE89511244E5F5F4FF1E0A038BF0790
:107F300051F7F601A7BEE89507B600FCFDCF97BE46
:107F4000E89526C08437B1F42ED02DD0F82E2BD052
:107F50003CD0F601EF2C8F010F5F1F4F84911BD097
:107F6000EA94F801C1F70894C11CD11CFA94CF0C13
:107F7000D11C0EC0853739F428D08EE10CD085E9AC
:107F80000AD08FE07ACF813511F488E018D01DD067
:107F900080E101D065CF982F8091C00085FFFCCF94
:107FA0009093C60008958091C00087FFFCCF809118
:107FB000C00084FD01C0A8958091C6000895E0E648
:107FC000F0E098E1908380830895EDDF803219F02E
:107FD00088E0F5DFFFCF84E1DECF1F93182FE3DFCA
:107FE0001150E9F7F2DF1F91089580E0E8DFEE27F6
:047FF000FF270994CA
:027FFE00040479
:00000001FF
